{
  "contractName": "Voting",
  "abi": [
    {
      "inputs": [],
      "payable": false,
      "stateMutability": "nonpayable",
      "type": "constructor"
    },
    {
      "anonymous": false,
      "inputs": [
        {
          "indexed": false,
          "internalType": "uint256",
          "name": "candidateID",
          "type": "uint256"
        }
      ],
      "name": "AddedCandidate",
      "type": "event"
    },
    {
      "constant": false,
      "inputs": [
        {
          "internalType": "bytes32",
          "name": "name",
          "type": "bytes32"
        },
        {
          "internalType": "bytes32",
          "name": "party",
          "type": "bytes32"
        }
      ],
      "name": "addCandidate",
      "outputs": [],
      "payable": false,
      "stateMutability": "nonpayable",
      "type": "function"
    },
    {
      "constant": false,
      "inputs": [
        {
          "internalType": "bytes32",
          "name": "uid",
          "type": "bytes32"
        },
        {
          "internalType": "uint256",
          "name": "candidateID",
          "type": "uint256"
        }
      ],
      "name": "vote",
      "outputs": [],
      "payable": false,
      "stateMutability": "nonpayable",
      "type": "function"
    },
    {
      "constant": true,
      "inputs": [
        {
          "internalType": "uint256",
          "name": "candidateID",
          "type": "uint256"
        }
      ],
      "name": "totalVotes",
      "outputs": [
        {
          "internalType": "uint256",
          "name": "",
          "type": "uint256"
        }
      ],
      "payable": false,
      "stateMutability": "view",
      "type": "function"
    },
    {
      "constant": true,
      "inputs": [],
      "name": "getNumOfCandidates",
      "outputs": [
        {
          "internalType": "uint256",
          "name": "",
          "type": "uint256"
        }
      ],
      "payable": false,
      "stateMutability": "view",
      "type": "function"
    },
    {
      "constant": true,
      "inputs": [],
      "name": "getNumOfVoters",
      "outputs": [
        {
          "internalType": "uint256",
          "name": "",
          "type": "uint256"
        }
      ],
      "payable": false,
      "stateMutability": "view",
      "type": "function"
    },
    {
      "constant": true,
      "inputs": [
        {
          "internalType": "uint256",
          "name": "candidateID",
          "type": "uint256"
        }
      ],
      "name": "getCandidate",
      "outputs": [
        {
          "internalType": "uint256",
          "name": "",
          "type": "uint256"
        },
        {
          "internalType": "bytes32",
          "name": "",
          "type": "bytes32"
        },
        {
          "internalType": "bytes32",
          "name": "",
          "type": "bytes32"
        }
      ],
      "payable": false,
      "stateMutability": "view",
      "type": "function"
    }
  ],
  "bytecode": "0x608060405234801561001057600080fd5b50336000806101000a81548173ffffffffffffffffffffffffffffffffffffffff021916908373ffffffffffffffffffffffffffffffffffffffff160217905550610420806100606000396000f3fe608060405234801561001057600080fd5b50600436106100625760003560e01c806319e6e1581461006757806335b8e820146100a957806365fc783c146100f95780639ef1204c14610117578063a1adbb251461014f578063e8685ba114610187575b600080fd5b6100936004803603602081101561007d57600080fd5b81019080803590602001909291905050506101a5565b6040518082815260200191505060405180910390f35b6100d5600480360360208110156100bf57600080fd5b81019080803590602001909291905050506101fa565b60405180848152602001838152602001828152602001935050505060405180910390f35b61010161023b565b6040518082815260200191505060405180910390f35b61014d6004803603604081101561012d57600080fd5b810190808035906020019092919080359060200190929190505050610245565b005b6101856004803603604081101561016557600080fd5b8101908080359060200190929190803590602001909291905050506102cf565b005b61018f6103e1565b6040518082815260200191505060405180910390f35b6000806000905060008090505b6002548110156101f05783600460008381526020019081526020016000206001015414156101e35781806001019250505b80806001019150506101b2565b5080915050919050565b600080600083600360008681526020019081526020016000206000015460036000878152602001908152602001600020600101549250925092509193909250565b6000600254905090565b600115156003600083815260200190815260200160002060020160009054906101000a900460ff16151514156102cb57600060026000815480929190600101919050559050604051806040016040528084815260200183815250600460008381526020019081526020016000206000820151816000015560208201518160010155905050505b5050565b6000809054906101000a900473ffffffffffffffffffffffffffffffffffffffff1673ffffffffffffffffffffffffffffffffffffffff163373ffffffffffffffffffffffffffffffffffffffff161461032857600080fd5b60006001600081548092919060010191905055905060405180606001604052808481526020018381526020016001151581525060036000838152602001908152602001600020600082015181600001556020820151816001015560408201518160020160006101000a81548160ff0219169083151502179055509050507fec542c373a064661ffef02d633752debf28f3e6c9f253680822d9ccf8b47aec6816040518082815260200191505060405180910390a1505050565b600060015490509056fea265627a7a7231582018c2804be57f22e47436338cf618829de37e1c980108197ce397a88fa867b0be64736f6c63430005100032",
  "source": "pragma solidity ^0.5.16;\r\n// written for Solidity version 0.4.18 and above that doesnt break functionality\r\n\r\ncontract Voting {\r\n    // an event that is called whenever a Candidate is added so the frontend could\r\n    // appropriately display the candidate with the right element id (it is used\r\n    // to vote for the candidate, since it is one of arguments for the function \"vote\")\r\n    event AddedCandidate(uint candidateID);\r\n\r\n    // describes a Voter, which has an id and the ID of the candidate they voted for\r\n    address owner;\r\n    constructor ()public {\r\n        owner=msg.sender;\r\n    }\r\n    modifier onlyOwner {\r\n        require(msg.sender == owner);\r\n        _;\r\n    }\r\n    struct Voter {\r\n        bytes32 uid; // bytes32 type are basically strings\r\n        uint candidateIDVote;\r\n    }\r\n    // describes a Candidate\r\n    struct Candidate {\r\n        bytes32 name;\r\n        bytes32 party; \r\n        // \"bool doesExist\" is to check if this Struct exists\r\n        // This is so we can keep track of the candidates \r\n        bool doesExist; \r\n    }\r\n\r\n    // These state variables are used keep track of the number of Candidates/Voters \r\n    // and used to as a way to index them     \r\n    uint numCandidates; // declares a state variable - number Of Candidates\r\n    uint numVoters;\r\n\r\n    \r\n    // Think of these as a hash table, with the key as a uint and value of \r\n    // the struct Candidate/Voter. These mappings will be used in the majority\r\n    // of our transactions/calls\r\n    // These mappings will hold all the candidates and Voters respectively\r\n    mapping (uint => Candidate) candidates;\r\n    mapping (uint => Voter) voters;\r\n    \r\n    /* * * * * * * * * * * * * * * * * * * * * * * * * * * * * * * *\r\n     *  These functions perform transactions, editing the mappings *\r\n     * * * * * * * * * * * * * * * * * * * * * * * * * * * * * * * */\r\n\r\n    function addCandidate(bytes32 name, bytes32 party) onlyOwner public {\r\n        // candidateID is the return variable\r\n        uint candidateID = numCandidates++;\r\n        // Create new Candidate Struct with name and saves it to storage.\r\n        candidates[candidateID] = Candidate(name,party,true);\r\n        emit AddedCandidate(candidateID);\r\n    }\r\n\r\n    function vote(bytes32 uid, uint candidateID) public {\r\n        // checks if the struct exists for that candidate\r\n        if (candidates[candidateID].doesExist == true) {\r\n            uint voterID = numVoters++; //voterID is the return variable\r\n            voters[voterID] = Voter(uid,candidateID);\r\n        }\r\n    }\r\n\r\n    /* * * * * * * * * * * * * * * * * * * * * * * * * * \r\n     *  Getter Functions, marked by the key word \"view\" *\r\n     * * * * * * * * * * * * * * * * * * * * * * * * * */\r\n    \r\n\r\n    // finds the total amount of votes for a specific candidate by looping\r\n    // through voters \r\n    function totalVotes(uint candidateID) view public returns (uint) {\r\n        uint numOfVotes = 0; // we will return this\r\n        for (uint i = 0; i < numVoters; i++) {\r\n            // if the voter votes for this specific candidate, we increment the number\r\n            if (voters[i].candidateIDVote == candidateID) {\r\n                numOfVotes++;\r\n            }\r\n        }\r\n        return numOfVotes; \r\n    }\r\n\r\n    function getNumOfCandidates() public view returns(uint) {\r\n        return numCandidates;\r\n    }\r\n\r\n    function getNumOfVoters() public view returns(uint) {\r\n        return numVoters;\r\n    }\r\n    // returns candidate information, including its ID, name, and party\r\n    function getCandidate(uint candidateID) public view returns (uint,bytes32, bytes32) {\r\n        return (candidateID,candidates[candidateID].name,candidates[candidateID].party);\r\n    }\r\n}\r\n",
  "sourcePath": "C:\\Users\\Asus\\OneDrive\\Desktop\\Proj\\Blockchain\\Matdaan\\eth-voting-dapp\\contracts\\Voting.sol",
  "compiler": {
    "name": "solc",
    "version": "0.5.16+commit.9c3226ce.Emscripten.clang"
  },
  "schemaVersion": "3.4.4",
  "updatedAt": "2022-01-31T10:40:27.071Z",
  "networkType": "ethereum",
  "devdoc": {
    "methods": {}
  },
  "userdoc": {
    "methods": {}
  }
}